:020000040000FA
:100000000C9463000C948B000C948B000C948B006C
:100010000C948B000C948B000C948B000C94490571
:100020000C948B000C948B000C948B000C94470662
:100030000C948B000C948B000C948B000C948B0014
:100040000C94FD050C948B000C94CB050C94A50529
:100050000C948B000C948B000C948B000C948B00F4
:100060000C948B000C948B000000000024002700EF
:100070002A000000000023002600290000000008DC
:10008000000201000003040700000000000000005F
:10009000010204081020408001020408102001021F
:1000A0000408102000000000250028002B00040494
:1000B0000404040404040202020202020303030310
:1000C00003030200030711241FBECFEFD8E0DEBFF9
:1000D000CDBF15E0A0E0B1E0E2EEF0E202C0059095
:1000E0000D92A63EB107D9F727E0A6EEB5E001C014
:1000F0001D92A438B207E1F710E0C3E6D0E004C0D7
:100100002197FE010E946910C236D107C9F70E94EB
:1001100033080C946F100C940000EAE0F6E0A0891C
:10012000B18982E08C93A485B5851C92A685B7859C
:100130008FEC8C93108EA489B58986E08C93A2896C
:10014000B3898C9180618C93A289B3898C918860EA
:100150008C93A289B3898C9180688C930288F389EF
:10016000E02D80818F7D808308958F929F92AF9242
:10017000BF92FF920F931F93CF93DF93F0902407CA
:100180002BE02F1508F44CC02091260708E512E05B
:10019000021B110927FD1395000F111F000F111FDE
:1001A00020912507C8E8D0E0C21BD10927FDD395CF
:1001B000CC0FDD1FCC0FDD1F4E010D2E000CAA0849
:1001C000BB089801012E000C440B550B2819390966
:1001D0004A095B09DC010E94E80F24EB30E040E0B3
:1001E00050E00E94BE0F820E931EA41EB51E8C16F8
:1001F0009D062CF0E801801691060CF4E40122978C
:10020000CC0FDD1F2FB7F8948F2D90E0FC01EE0F7F
:10021000FF1FE80FF91FE151F94FD283C1832FBFB0
:10022000DF91CF911F910F91FF90BF90AF909F9062
:100230008F900895AF92BF92CF92DF92EF92FF928C
:100240000F931F93CF93DF936C017B018B01040FFE
:10025000151FEB015E01AE18BF08C017D10759F09A
:100260006991D601ED91FC910190F081E02DC601DC
:100270000995892B79F7C501DF91CF911F910F91D6
:10028000FF90EF90DF90CF90BF90AF900895FC016A
:10029000538D448D252F30E0842F90E0821B930BEB
:1002A000541710F0CF96089501970895FC01918D91
:1002B000828D981761F0A28DAE0FBF2FB11D5D9694
:1002C0008C91928D9F5F9F73928F90E008958FEF36
:1002D0009FEF0895FC01918D828D981731F0828DEA
:1002E000E80FF11D858D90E008958FEF9FEF089541
:1002F000FC01918D228D892F90E0805C9F4F821BA5
:1003000091098F73992708958AE096E00E947801F9
:1003100021E0892B09F420E0822F089580E090E00D
:10032000892B29F00E94840181110C94000008950A
:10033000FC01A48DA80FB92FB11DA35ABF4F2C915A
:10034000848D90E001968F739927848FA689B78951
:100350002C93A089B1898C91837080648C93938D48
:10036000848D981306C00288F389E02D80818F7DEB
:1003700080830895EF92FF920F931F93CF93DF93A3
:10038000EC0181E0888F9B8D8C8D98131AC0E889D1
:10039000F989808185FF15C09FB7F894EE89FF89A0
:1003A0006083E889F98980818370806480839FBF3E
:1003B00081E090E0DF91CF911F910F91FF90EF903E
:1003C0000895F62E0B8D10E00F5F1F4F0F7311274E
:1003D000E02E8C8D8E110CC00FB607FCFACFE88989
:1003E000F989808185FFF5CFCE010E949801F1CF78
:1003F000EB8DEC0FFD2FF11DE35AFF4FF0829FB7FD
:10040000F8940B8FEA89FB8980818062CFCFCF93EC
:10041000DF93EC01888D8823B9F0AA89BB89E8892C
:10042000F9898C9185FD03C0808186FD0DC00FB6D2
:1004300007FCF7CF8C9185FFF2CF808185FFEDCF50
:10044000CE010E949801E9CFDF91CF9108958330CA
:1004500081F028F4813099F08230A9F00895873036
:10046000A9F08830C9F08430B1F4809180008F7D8C
:1004700003C0809180008F7780938000089584B5B9
:100480008F7784BD089584B58F7DFBCF8091B000B8
:100490008F778093B00008958091B0008F7DF9CF61
:1004A000CF93DF93282F30E0F901E458FF4F849178
:1004B000F901E057FF4FD491F901E255FF4FC49184
:1004C000CC23A1F081110E942702EC2FF0E0EE0F67
:1004D000FF1FEE58FF4FA591B491EC91ED2381E001
:1004E00090E009F480E0DF91CF91089580E090E002
:1004F000FACF1F93CF93DF93282F30E0F901E45810
:10050000FF4F8491F901E057FF4FD491F901E25573
:10051000FF4FC491CC23A9F0162F81110E9427020E
:10052000EC2FF0E0EE0FFF1FEC55FF4FA591B491BB
:100530008FB7F894EC91111108C0D095DE23DC93AD
:100540008FBFDF91CF911F910895DE2BF8CF90914F
:10055000000189130BC0E2ECF0E0E4919FEF90936F
:100560000001E13049F028F0E23061F060E00C94E5
:10057000790210926E00FACF90916F009D7F909358
:100580006F00F4CF909170009D7F9093700091E088
:100590009093B0009091B100987F94609093B100D7
:1005A0001092B300E3CFCF93DF9390E0FC01E057CC
:1005B000FF4F249182559F4FFC0184918823D1F0F5
:1005C00090E0880F991FFC01E859FF4FA591B49165
:1005D000FC01EC55FF4FC591D49161110EC09FB73E
:1005E000F8948C91E22FE0958E238C932881E2235E
:1005F000E8839FBFDF91CF9108958FB7F894EC9176
:10060000E22BEC938FBFF6CF3FB7F8948091EC05C7
:100610009091ED05A091EE05B091EF0526B5A89B50
:1006200005C02F3F19F00196A11DB11D3FBFBA2F84
:10063000A92F982F8827BC01CD01620F711D811D44
:10064000911D42E0660F771F881F991F4A95D1F7C9
:1006500008958F929F92AF92BF92CF92DF92EF92C6
:10066000FF926B017C010E9404034B015C01C114E9
:10067000D104E104F104B9F00E9404036819790976
:100680008A099B09683E73408105910580F321E04A
:10069000C21AD108E108F10888EE880E83E0981E9E
:1006A000A11CB11CE4CFFF90EF90DF90CF90BF90E2
:1006B000AF909F908F9008952FB7F8946091E805C0
:1006C0007091E9058091EA059091EB052FBF08959F
:1006D000CF92DF92EF92FF920F931F93CF93DF930E
:1006E00000D0CDB7DEB769834A83880F991F009188
:1006F000820710918307000F111FECE2F7E09F01C2
:100700002C5237402017310714F41192F8CF298169
:10071000FC01E45DF84F21838A81808360E0809151
:1007200080070E9479021016110604F50150110984
:10073000F801E45DF84FE080D0907E07C0907C0720
:1007400088E0F82E6E2D661F6627661F8C2D0E948E
:100750007902EE0C61E08D2D0E94790260E08D2D12
:100760000E947902FA94F110EDCFDDCF61E0809123
:1007700080070F900F90DF91CF911F910F91FF9005
:10078000EF90DF90CF900C94790220918207309106
:10079000830712161306FCF488309105E0F46830E4
:1007A0007105C8F420E830E002C0359527956A95B8
:1007B000E2F7FC01E45DF84F5089442349F0252B12
:1007C000208B61E0680F408990E080E00C94680322
:1007D00020952523F5CF0895E7E2F7E06281738144
:1007E00041E0808191810C94C503CF92DF92EF921A
:1007F000FF920F931F93CF93DF9320918207309145
:10080000830712161306ECF488309105D1F07C01B1
:10081000D0E0C0E0062F10E087E0C82ED12CC60142
:100820008C1B9D0BA80102C0559547958A95E2F750
:100830004170B701CE010E94C5032196C830D10591
:1008400071F7DF91CF911F910F91FF90EF90DF90A3
:10085000CF900895CF93DF93FC0120813181232B2A
:1008600049F12091FC05211125C0C681D7818091D5
:100870002707909128076091290770912A079C010A
:100880002150310940E026303105B8F40E94C503FB
:10089000209709F1219749F16091290770912A0762
:1008A00041E080912707909128070E94C50381E0CD
:1008B0008093FC05DF91CF9108950E94C50380913C
:1008C00027079091280787309105A9F4219721F7F0
:1008D00086E090E005C08091270790912807019657
:1008E0009093280780932707D7CF8091270790916F
:1008F00028070197F5CF892B79F6CD2B69F681E092
:1009000090E0EECFEF92FF921F93CF93DF93209171
:1009100082073091830782179307B4F4EC0123E038
:10092000880F991F2A95E1F79C01245C384F7901C3
:1009300011E0F70111927F0140E0612FCE010E948A
:1009400068031F5F1930A9F7DF91CF911F91FF90C6
:10095000EF900895FC0101900020E9F73197AF0175
:10096000481B590BBC018AE096E00C941A018F9247
:100970009F92AF92BF920F931F93CF93DF93CDB708
:10098000DEB7A1970FB6F894DEBF0FBECDBF19A298
:10099000423008F44AE08E010F5D1F4F842E912CE7
:1009A000B12CA12CA50194010E949C0FE62FB90146
:1009B000CA01EA30F4F4E05DD801EE938D01232BF7
:1009C000242B252B79F790E080E0109719F0CD01CA
:1009D0000E94AA04A1960FB6F894DEBF0FBECDBF49
:1009E000DF91CF911F910F91BF90AF909F908F900B
:1009F0000895E95CE1CFEF92FF920F931F93CF939D
:100A0000DF9300D000D0CDB7DEB78AE096E00E9439
:100A100056018AE096E00E9456018E010F5F1F4F3B
:100A200078018A3341F0F80181938F018AE096E0E2
:100A30000E945601F6CFC7010E947B0E182F8AE054
:100A400096E00E9456018053990B8230910520F464
:100A5000682F812F0E9479028AE096E00E94560159
:100A60008A3011F08D30C1F78AE096E00E946A0169
:100A70008A3021F48AE096E00E9456010F900F9090
:100A80000F900F90DF91CF911F910F91FF90EF90FA
:100A900008951F920F920FB60F9211242F933F9338
:100AA0004F935F936F937F938F939F93AF93BF9376
:100AB000EF93FF938091060690910706A091080698
:100AC000B0910906892B8A2B8B2BD1F190910506C9
:100AD000E0910306F091040680818927808380914C
:100AE000060690910706A0910806B091090618160F
:100AF00019061A061B069CF48091060690910706BB
:100B0000A0910806B09109060197A109B109809347
:100B1000060690930706A0930806B0930906FF9176
:100B2000EF91BF91AF919F918F917F916F915F9165
:100B30004F913F912F910F900FBE0F901F901895DE
:100B4000809100010E94A702EACF1F920F920FB678
:100B50000F9211242F933F934F935F936F937F9343
:100B60008F939F93AF93BF93EF93FF938AE096E0A9
:100B70000E949801FF91EF91BF91AF919F918F914A
:100B80007F916F915F914F913F912F910F900FBE89
:100B90000F901F9018951F920F920FB60F9211246D
:100BA0002F938F939F93EF93FF93E0911A06F09109
:100BB0001B068081E0912006F091210682FD1BC07A
:100BC0009081809123068F5F8F7320912406821776
:100BD00041F0E0912306F0E0E65FF94F958F8093B6
:100BE0002306FF91EF919F918F912F910F900FBE50
:100BF0000F901F9018958081F4CF1F920F920FB61F
:100C00000F9211242F933F938F939F93AF93BF9392
:100C10008091E8059091E905A091EA05B091EB0576
:100C20003091E70523E0230F2D3758F50196A11DDC
:100C3000B11D2093E7058093E8059093E905A09303
:100C4000EA05B093EB058091EC059091ED05A0913C
:100C5000EE05B091EF050196A11DB11D8093EC0545
:100C60009093ED05A093EE05B093EF05BF91AF9182
:100C70009F918F913F912F910F900FBE0F901F90DA
:100C8000189526E8230F0296A11DB11DD2CF1F9201
:100C90000F920FB60F9211242F933F934F935F93B0
:100CA0006F937F938F939F93AF93BF93CF93DF9374
:100CB000EF93FF938091E605C0911307D0E087FF83
:100CC00024C010928500109284008091E6058F5F09
:100CD0008093E6058091E605082E000C990B8C1791
:100CE0009D0724F48091E6058C30C4F18091840046
:100CF00090918500049680349C4908F47AC08091D4
:100D0000840090918500049676C08091E605082EB7
:100D1000000C990B8C179D07C4F6E091E6058E2F09
:100D2000EE0F990BFC01EE0FFF1FE80FF91FE151C9
:100D3000F94F808186FFC9CFE091E6058E2FEE0F37
:100D4000990BFC01EE0FFF1FE80FF91FE151F94F5E
:100D5000808160E08F730E947902B7CF2091840078
:100D600030918500E091E6058E2FEE0F990BFC0186
:100D7000EE0FFF1FE80FF91FE151F94F81819281BA
:100D8000820F931F9093890080938800E091E6057D
:100D90008E2FEE0F990BFC01EE0FFF1FE80FF91FCE
:100DA000E151F94F808186FF11C0E091E6058E2F59
:100DB000EE0F990BFC01EE0FFF1FE80FF91FE15139
:100DC000F94F808161E08F730E947902FF91EF916A
:100DD000DF91CF91BF91AF919F918F917F916F9153
:100DE0005F914F913F912F910F900FBE0F901F90E9
:100DF000189580E49CE990938900809388008FEF98
:100E00008093E605E3CFCF93DF9310920D06109207
:100E10000C0688EE93E0A0E0B0E080930E0690937D
:100E20000F06A0931006B093110689EA95E09093FF
:100E30000B0680930A0685EC90E09093170680934A
:100E4000160684EC90E0909319068093180680ECC7
:100E500090E090931B0680931A0681EC90E09093AB
:100E60001D0680931C0682EC90E090931F068093F1
:100E70001E0686EC90E09093210680932006109247
:100E80002306109224061092250610922606109230
:100E9000AD061092AE061092AF061092B0061092F8
:100EA000B1061092B2061092B3061092B4061092D8
:100EB000B5061092B6061092B7061092B8061092B8
:100EC000B9061092BA061092BB061092BC0689E3CE
:100ED00098E09093EE068093ED06C8E0D0E0D093C2
:100EE0007D07C0937C078AE090E090937F07809312
:100EF0007E0789E090E0909381078093800781E0EE
:100F000090E0909383078093820761E088E00E94DD
:100F1000D30261E080917E070E94D30261E080915C
:100F200080070E94D30261E0809180070E947902CD
:100F3000D0937D07C0937C07ECE3F7E08CE797E064
:100F400011928E179F07E1F7D0E0C0E080918207F1
:100F500090918307C817D9073CF540E06FE0CE01B8
:100F60000E9468038091820790918307C817D90770
:100F70002CF447E06BE0CE010E94680340E069E09A
:100F8000CE010E946803CE010E94820480918207F4
:100F900090918307C817D9072CF440E06CE0CE018C
:100FA0000E9468032196D2CF10922B0723E030E0F5
:100FB000309328072093270710922A0710922907B9
:100FC0001816190634F44FE06AE090E080E00E94C1
:100FD000680341E070E060E083E090E00E94C503B8
:100FE000809113078C30D8F591E0980F90931307F8
:100FF0008093240790E0FC01EE0FFF1FE80FF91F1C
:10100000E151F94F88EB9BE09283818310921D0799
:1010100010921C0783E090E090931F0780931E07B7
:1010200090932107809320071092230710922207A4
:10103000109215071092140722E030E03093170742
:1010400020931607909319078093180781E090E08A
:1010500090931B0780931A07DF91CF9108958FEF2C
:1010600080932407D3CFCF93DF93CDB7DEB76E97AE
:101070000FB6F894DEBF0FBECDBF789484B5826002
:1010800084BD84B5816084BD85B5826085BD85B52C
:10109000816085BD80916E00816080936E001092AA
:1010A0008100809181008260809381008091810025
:1010B00081608093810080918000816080938000B6
:1010C0008091B10084608093B1008091B000816014
:1010D0008093B00080917A00846080937A00809140
:1010E0007A00826080937A0080917A008160809398
:1010F0007A0080917A00806880937A001092C10013
:101100001092E9061092EA061092EB061092EC0695
:101110001092A9061092AA061092AB061092AC0685
:101120000E945C036B017C014B015C0128EB820E89
:101130002BE0921EA11CB11C0E945C036C157D0566
:101140008E059F0528F086169706A806B906A0F713
:1011500068EE73E080E090E00E9429030E948D0019
:101160000E945C036093A9067093AA068093AB0665
:101170009093AC0687EB95E00E94AA040E945C0362
:101180006B017C014B015C013AE0830E911CA11CB8
:10119000B11C0E945C036C157D058E059F0528F02F
:1011A00086169706A806B906A0F781E08093BD06CB
:1011B0000E945C036093A9067093AA068093AB0615
:1011C0009093AC0688EC95E00E94AA040E948D00E2
:1011D00080918207909183071816190634F441E034
:1011E0006CE090E080E00E9468038091820790911B
:1011F00083071816190634F448E06AE090E080E0AE
:101200000E94680390E080E00E9482040E94EC0348
:1012100060E082E00E94D30260E083E00E94D3029B
:10122000809124078C3008F051C061E08BE00E946F
:10123000D30280912407282F30E0F901EE0FFF1F21
:10124000E20FF31FE151F94F9081907C9B609083F6
:1012500010922507109226072CE0622F0E9435106D
:10126000829FB001112430E020E0AB01420F531FF8
:10127000FA01EE0FFF1FE40FF51FE151F94F9081C6
:1012800096FD16C02F5F3F4F2C30310571F781114D
:101290000FC01092800082E0809381001092850040
:1012A00010928400B19A80916F00826080936F00E9
:1012B000E09124078E2F90E0FC01EE0FFF1FE80F56
:1012C000F91FE151F94F80818064808390E080E0D4
:1012D0000E94B5000E945C03672B682B692B09F400
:1012E000F3C00E945C030091FF051091000620915D
:1012F000010630910206601771078207930708F410
:1013000004C10091FF051091000620910106309163
:1013100002066B017C01C01AD10AE20AF30A9701A6
:101320008601083E13402105310508F4D5C06093BD
:10133000FF0570930006809301069093020684EFE8
:1013400091E0A0E0B0E08093B5069093B606A0933C
:10135000B706B093B8061092B9061092BA0610926A
:10136000BB061092BC068091AD069091AE06A0918E
:10137000AF06B091B0068093B1069093B206A093E9
:10138000B306B093B4060E945C036093AD067093FD
:10139000AE068093AF069093B0068AE096E00E9476
:1013A0006A01843611F40E94FB040E945C0360937E
:1013B000A9067093AA068093AB069093AC060E9490
:1013C0005C036B017C018FEC95E00E94AA044AE06B
:1013D00061E070E080E090E00E94B70486ED95E067
:1013E0000E94AA044AE0C701B6010E94B70488ED32
:1013F00095E00E94AA048091AD069091AE06A0915E
:10140000AF06B091B006A7019601281B390B4A0B15
:101410005B0BCA01B9014AE00E94B70488ED95E070
:101420000E94AA046091AD067091AE068091AF064D
:101430009091B0060091B1061091B2062091B306CA
:101440003091B406601B710B820B930B4AE00E9433
:10145000B7048AED95E00E94AA040E945C034AE06A
:101460000E94B7048CED95E00E94AA0483EE95E0FB
:101470000E94AA040E945C036B017C014B015C0189
:1014800035E0830E911CA11CB11C0E945C036C15FD
:101490007D058E059F0528F086169706A806B906D5
:1014A000A0F78AE096E00E946A01843611F40E9457
:1014B000FB040E945C036093AD067093AE068093BC
:1014C000AF069093B00608C00E945C0362307105BD
:1014D0008105910508F005CF0E945C036C317C40CA
:1014E00081059105D8F08091FE05882309F481C01B
:1014F00080E090E0892B09F4EDCE0E9484018823DE
:1015000009F4E8CE0E940000E5CE6093FF057093D9
:1015100000068093010690930206F3CE0E945C03BE
:10152000693E734081059105F0F288E0E5E0F1E065
:10153000DE01519601900D928A95E1F788E0EDE089
:10154000F1E0DE01199601900D928A95E1F788E0AD
:10155000E5E1F1E0DE01119601900D928A95E1F747
:1015600090E080E00E9482040E945C03603D77402E
:101570008105910590F47E01B1E1EB0EF11C10E0C4
:1015800000E0F70161917F01C8010E94F5030F5F40
:101590001F4F08301105A9F7ABCF0E945C03683BD1
:1015A0007B408105910590F47E0129E0E20EF11C5B
:1015B00010E000E0D7016D917D01C8010E94F503A4
:1015C0000F5F1F4F08301105A9F792CF8E010F5FF3
:1015D0001F4FF12CE12CF80161918F01C7010E948E
:1015E000F503FFEFEF1AFF0A28E0E216F10499F77E
:1015F0007FCF8091FD0581117BCF0E945C0360331A
:1016000075478105910508F4A5C286E990E00E941E
:10161000B50088E0EDE1F1E0DE01119601900D9258
:101620008A95E1F790E080E00E9482048E010F5FCE
:101630001F4FF12CE12CD8016D918D01C7010E9443
:10164000F503BFEFEB1AFB0AE8E0EE16F10499F799
:1016500081E08093FD056DE2262E61E0362E07E0E5
:10166000D10112966D917C91161617060CF0E5C00B
:101670008091ED069091EE060E9441107093FB055B
:101680006093FA056091FA057091FB05072E000C36
:10169000880B990B0E94A30E26E636E646E65FE32A
:1016A0000E94DE0E0E940610698F7A8F8B8F9C8FAE
:1016B000F1010190F081E02DFE8FED8F809100010E
:1016C000873009F0D6C0E2ECF0E0149117FDC6C1F6
:1016D00061E087E00E94D302112319F0123009F073
:1016E000D6C1CD8CDE8C4601B12CA12C60E072E11C
:1016F0008AE790E0A50196010E94BE0F29013A01F8
:101700007A01690121E0C21AD108E108F1083FEF2E
:10171000C316D104E104F10409F00CF467C160E4DC
:1017200072E48FE090E0A50194010E94BE0F690170
:101730007A0181E0C81AD108E108F108123009F0F5
:101740000CC182E09FEFC916D104E104F10409F055
:101750000CF46CC060E970ED83E090E0A5019401A9
:101760000E94BE0F69017A01A1E0CA1AD108E108FE
:10177000F10883E0BFEFCB16D104E104F10409F0D6
:101780000CF454C068E478EE81E090E0A501940187
:101790000E94BE0F69017A0181E0C81AD108E108F0
:1017A000F10884E09FEFC916D104E104F104F1F1DE
:1017B000ECF164E274EF80E090E0A50194010E94F6
:1017C000BE0F69017A0181E0C81AD108E108F10869
:1017D00085E0FFEFCF16D104E104F10439F130F1D7
:1017E00062E17AE780E090E0A50194010E94BE0FDB
:1017F00069017A01A1E0CA1AD108E108F10886E07E
:10180000BFEFCB16D104E104F10481F078F073014D
:1018100062019AE0F594E794D794C7949A95D1F72A
:1018200031E0C31AD108E108F10887E09091B100D6
:10183000987F892B8093B100E0C06115710509F490
:1018400021CF7195619571098091ED069091EE0619
:101850000E944110072E000C880B990B0E94A30ECA
:1018600020E030E040EC5FE30E94DE0E0E94FF0FBC
:1018700005CF8F3F09F0F2C000930001E2ECF0E0E9
:1018800014911F3F09F4EAC0113029F150F01230D1
:1018900009F440C017FDE2C061E087E00E94D30276
:1018A0001DCF14BC15BC84B5826084BD85B5816034
:1018B00085BDE5EBF0E08491E82FF0E0EE0FFF1F2F
:1018C000EC55FF4F85919491E7E9F0E08491809386
:1018D000F10510E0FDCE1092800010928100809101
:1018E0008100886080938100809181008160809375
:1018F0008100E5EBF0E08491E82FF0E0EE0FFF1FB0
:10190000EC55FF4F85919491E7E9F0E08491809345
:10191000F005DECE1092B0001092B1008091B000C0
:1019200082608093B0008091B10081608093B100AB
:10193000E5EBF0E08491E82FF0E0EE0FFF1FEC55AF
:10194000FF4F859194919093040680930306E7E9F5
:10195000F0E0849180930506BBCEEFEFCE16D10464
:10196000E104F10409F00CF490C068E478EE81E041
:1019700090E0A50194010E94BE0F69017A01F1E097
:10198000CF1AD108E108F10884E0111122CF83E0D9
:10199000EFEFCE16D104E104F10459F154F162E104
:1019A0007AE780E090E0A50194010E94BE0F6901F2
:1019B0007A0191E0C91AD108E108F10884E0AFEF9B
:1019C000CA16D104E104F104A1F098F07301620198
:1019D0008AE0F594E794D794C7948A95D1F741E0CB
:1019E000C41AD108E108F10885E003C081E01111B3
:1019F0001DCF95B5987F892B85BD898D9A8DAB8D2F
:101A0000BC8D2FEF3FEFA901892B8A2B8B2B81F007
:101A1000AD8DBE8DAA0FBB1F298D3A8D4B8D5C8D70
:101A20000E94DD0F28EE33E040E050E00E949C0F62
:101A3000113009F45CC0123009F47CC011110EC0E1
:101A4000C7BC2093F6053093F7054093F8055093F3
:101A5000F90580916E00826080936E006091FA05B6
:101A60007091FB05072E000C880B990B0E9429032F
:101A700087E00E94A70294E0290E311CA5EAB5E098
:101A8000A215B30509F0ECCD33CD82E0B0CFCD8CFB
:101A9000DE8C4601B12CA12C60E072E18AE790E077
:101AA000A50196010E94BE0F69017A0181E0C81A62
:101AB000D108E108F108C114D10491E0E906F1046C
:101AC00044F591E0113009F098CF80918100887F32
:101AD000892B80938100298D3A8D4B8D5C8D232B32
:101AE000242B252B09F094CF2FEF3FEFA901D092A3
:101AF0008900C09288002093F2053093F30540934B
:101B0000F4055093F50580916F00826080936F001B
:101B1000A5CF68E478EE81E090E0A50194010E94F1
:101B2000BE0F69017A01A1E0CA1AD108E108F108E3
:101B300093E0C8CFC092B300209306063093070607
:101B4000409308065093090680917000826080934C
:101B5000700084CF0E946B0E68E070E00E9441101C
:101B60007C010E94EC0307E010E080911E070E94B8
:101B7000500290931D0780931C07809116070E94C6
:101B8000500290931507809314078CE197E00E9410
:101B90002A0484E197E00E942A0441E0B801C701C9
:101BA0000E94C50364E670E080E090E00E94290393
:101BB00040E0B801C7010E94C503809127079091BA
:101BC0002807E816F90681F58091290790912A07E0
:101BD0000817190749F581E080932B078093FE05CC
:101BE0008091FD05811184CC88E0E5E2F1E0DE0121
:101BF000119601900D928A95E1F790E080E00E94A5
:101C000082048E010F5F1F4FF12CE12CF8016191CE
:101C10008F01C7010E94F503FFEFEF1AFF0A28E0CA
:101C2000E216F10499F764CC10922B0701501109C8
:101C300008F09BCF0E94EC031092FC0559CC8F92C8
:101C40009F92AF92BF92CF92DF92EF92FF92CF938B
:101C5000DF93EC01688179818A819B81611571052F
:101C60008105910521F464E279ED8BE597E02DE1A2
:101C700033EF41E050E00E94BE0F49015A019B0141
:101C8000AC01A7EAB1E40E94DD0F6B017C01ACEE70
:101C9000B4EFA50194010E94EB0FDC01CB018C0D88
:101CA0009D1DAE1DBF1DB7FF03C00197A109B04820
:101CB00088839983AA83BB839F77DF91CF91FF901D
:101CC000EF90DF90CF90BF90AF909F908F9008954E
:101CD0000E941F0E089581E091E00E941F0E08955A
:101CE000B0E0A0E08093010190930201A093030172
:101CF000B09304010895FC0188279927E894219165
:101D00002032E9F3293010F02E30C8F32B3241F0A5
:101D10002D3239F4689404C00E94990E820F911DEF
:101D2000219120532A30C0F31EF4909581959F4F46
:101D300008957AE0979F902D879F802D910D112413
:101D40000895E89409C097FB3EF4909580957095AE
:101D500061957F4F8F4F9F4F9923A9F0F92F96E9F7
:101D6000BB279395F695879577956795B795F1116C
:101D7000F8CFFAF4BB0F11F460FF1BC06F5F7F4F09
:101D80008F4F9F4F16C0882311F096E911C077231B
:101D900021F09EE8872F762F05C0662371F096E824
:101DA000862F70E060E02AF09A95660F771F881FF3
:101DB000DAF7880F9695879597F908950E94F10EA6
:101DC0000C94620F0E94540F38F00E945B0F20F0B9
:101DD000952311F00C944B0F0C94510F11240C947B
:101DE000960F0E94730F70F3959FC1F3950F50E00B
:101DF000551F629FF001729FBB27F00DB11D639FBD
:101E0000AA27F00DB11DAA1F649F6627B00DA11D62
:101E1000661F829F2227B00DA11D621F739FB00D08
:101E2000A11D621F839FA00D611D221F749F332778
:101E3000A00D611D231F849F600D211D822F762F11
:101E40006A2F11249F5750409AF0F1F088234AF0EE
:101E5000EE0FFF1FBB1F661F771F881F915050405A
:101E6000A9F79E3F510580F00C944B0F0C94960FF0
:101E70005F3FE4F3983ED4F3869577956795B795E1
:101E8000F795E7959F5FC1F7FE2B880F911D9695FB
:101E9000879597F9089597F99F6780E870E060E06B
:101EA00008959FEF80EC089500240A9416161706F3
:101EB00018060906089500240A941216130614063B
:101EC00005060895092E0394000C11F4882352F09E
:101ED000BB0F40F4BF2B11F460FF04C06F5F7F4F56
:101EE0008F4F9F4F089557FD9058440F551F59F03D
:101EF0005F3F71F04795880F97FB991F61F09F3FF7
:101F000079F087950895121613061406551FF2CF1F
:101F10004695F1DF08C0161617061806991FF1CF6F
:101F200086957105610508940895E894BB27662796
:101F30007727CB0197F90895A1E21A2EAA1BBB1BA4
:101F4000FD010DC0AA1FBB1FEE1FFF1FA217B30785
:101F5000E407F50720F0A21BB30BE40BF50B661F9B
:101F6000771F881F991F1A9469F76095709580955F
:101F700090959B01AC01BD01CF010895052E97FB03
:101F80001EF400940E94D50F57FD07D00E949C0FAD
:101F900007FC03D04EF40C94D50F50954095309526
:101FA00021953F4F4F4F5F4F0895909580957095C5
:101FB00061957F4F8F4F9F4F08950E94F00FA59F0F
:101FC000900DB49F900DA49F800D911D1124089534
:101FD000B7FF0C94DD0F0E94DD0F821B930B089559
:101FE000A29FB001B39FC001A39F700D811D11245A
:101FF000911DB29F700D811D1124911D08950E94A5
:1020000006106894B1110C94960F08950E947B0FEE
:1020100088F09F5798F0B92F9927B751B0F0E1F0A9
:10202000660F771F881F991F1AF0BA95C9F714C059
:10203000B13091F00E94950FB1E008950C94950F86
:10204000672F782F8827B85F39F0B93FCCF3869592
:1020500077956795B395D9F73EF4909580957095EF
:1020600061957F4F8F4F9F4F0895991B79E004C072
:10207000991F961708F0961B881F7A95C9F78095C7
:10208000089597FB072E16F4009407D077FD09D02A
:102090000E94551007FC05D03EF4909581959F4F06
:1020A0000895709561957F4F0895AA1BBB1B51E160
:1020B00007C0AA1FBB1FA617B70710F0A61BB70BB8
:1020C000881F991F5A95A9F780959095BC01CD015D
:1020D0000895EE0FFF1F0590F491E02D0994F894F8
:1020E000FFCFFF01000000387818181818183C3C82
:1020F0007E66060C18307E003C42021C02423CC345
:10210000C3DBDBDBDBFF660606060606067E7E72A9
:1021100001080000000800B80108002A02080000B9
:10212000000800B80108000000080072010800263D
:102130000108002601080026010800000008000030
:1021400000040000000800150108002601080072C4
:10215000010800B80108002A02080000000800B8C1
:10216000010800000008005D0108009302FCFF6EFA
:102170000208004B02080000000800000004009F55
:10218000010800000008002A02080072010800008F
:102190000008002A020800000008009F0108000053
:1021A0000008002A020800880108007201080000E7
:1021B0000008004A010800000008004A0108004A1F
:1021C0000108004A01080000000800000004004A5D
:1021D0000108004A0108004A010800000008000048
:1021E000000400370108002601080015010800005E
:1021F000000800B80108002A02080000000800B822
:1022000001080000000800720108002601080026ED
:10221000010800260108000000080093020800934E
:102220000208009302080000000800000008007285
:10223000010800B80108002A02080000000800B8E0
:10224000010800000008005D010800930202004B35
:102250000208000000080000000400EE01080088E9
:102260000108002601080015010400EE010800889D
:1022700001080015010800B80108007201080006F5
:10228000010800F70004005D01080026010800F7BE
:102290000008004A0108004A0108004A010800003D
:1022A00000040000000400D20104002A0208004BD0
:1022B000020800E4020800700308000000080000A3
:1022C00000040000000200DC000400E9000400DC5F
:1022D00000FCFFDC000800DC00020000000400DC61
:1022E000000800E9000800DC0008005D01040006A9
:1022F000010800DC00FCFFDC000800DC000200003C
:10230000000200F7000400060104001501FCFF06AE
:102310000108001501020000000400150108000674
:10232000010800150108009F01040037010800158D
:1023300001FCFF37010800F70001004A0104004AD0
:102340000104004A010400000008007201080000B6
:10235000000800B80108002A02080000000800B8C0
:10236000010800000008007201080026010800268C
:102370000108002601080000000800000004000019
:10238000000800150108002601080072010800B8C5
:102390000108002A02080000000800B80108000037
:1023A0000008005D0108009302FCFF6E0208004B6C
:1023B00002080000000800000004009F010800005F
:1023C0000008002A02080072010800000008002A24
:1023D000020800000008009F010800000008002A11
:1023E0000208008801080072010800000008004A85
:1023F000010800000008004A0108004A0108004ADC
:1024000001080000000800000004004A0108004A1A
:102410000108004A0108000000080000000400371D
:10242000010800260108001501080000000800B896
:102430000108002A02080000000800B80108000096
:102440000008007201080026010800260108002685
:10245000010800000008009302080093020800939E
:10246000020800000008000000080072010800B81F
:102470000108002A02080000000800B80108000056
:102480000008005D010800930202004B02080000F2
:1024900000080000000400EE010800880108002682
:1024A00001080015010400EE01080088010800156C
:1024B000010800B80108007201080006010800F7D1
:1024C0000004005D01080026010800F70008004A2A
:1024D0000108004A0108004A010800000004000049
:1024E000000400D20104002A0208004B020800E4A4
:1024F000020800700308000000080000000400004B
:10250000000200DC000400E9000400DC00FCFFDC49
:10251000000800DC00020000000400DC000800E904
:10252000000800DC0008005D01040006010800DC72
:1025300000FCFFDC000800DC00020000000200F7E5
:10254000000400060104001501FCFF060108001547
:102550000102000000040015010800060108001532
:102560000108009F010400370108001501FCFF3736
:10257000010800F70001004A0104004A0104004A72
:102580000104000000080000000000BA011A014721
:10259000010702780156016A01564D4450565F31D9
:1025A0007C315F564D4450560A00564D4450525FA0
:1025B00000564D4450455F003A323A007C005F5669
:0825C0004D445045000D0A00D6
:107E0000112484B714BE81FFF0D085E080938100F7
:107E100082E08093C00088E18093C10086E0809377
:107E2000C20080E18093C4008EE0C9D0259A86E02C
:107E300020E33CEF91E0309385002093840096BBD3
:107E4000B09BFECF1D9AA8958150A9F7CC24DD24C4
:107E500088248394B5E0AB2EA1E19A2EF3E0BF2EE7
:107E6000A2D0813461F49FD0082FAFD0023811F036
:107E7000013811F484E001C083E08DD089C08234E0
:107E800011F484E103C0853419F485E0A6D080C0E4
:107E9000853579F488D0E82EFF2485D0082F10E0AE
:107EA000102F00270E291F29000F111F8ED06801E7
:107EB0006FC0863521F484E090D080E0DECF843638
:107EC00009F040C070D06FD0082F6DD080E0C81688
:107ED00080E7D80618F4F601B7BEE895C0E0D1E017
:107EE00062D089930C17E1F7F0E0CF16F0E7DF06D8
:107EF00018F0F601B7BEE89568D007B600FCFDCFD4
:107F0000A601A0E0B1E02C9130E011968C91119780
:107F100090E0982F8827822B932B1296FA010C0160
:107F200087BEE89511244E5F5F4FF1E0A038BF0790
:107F300051F7F601A7BEE89507B600FCFDCF97BE46
:107F4000E89526C08437B1F42ED02DD0F82E2BD052
:107F50003CD0F601EF2C8F010F5F1F4F84911BD097
:107F6000EA94F801C1F70894C11CD11CFA94CF0C13
:107F7000D11C0EC0853739F428D08EE10CD085E9AC
:107F80000AD08FE07ACF813511F488E018D01DD067
:107F900080E101D065CF982F8091C00085FFFCCF94
:107FA0009093C60008958091C00087FFFCCF809118
:107FB000C00084FD01C0A8958091C6000895E0E648
:107FC000F0E098E1908380830895EDDF803219F02E
:107FD00088E0F5DFFFCF84E1DECF1F93182FE3DFCA
:107FE0001150E9F7F2DF1F91089580E0E8DFEE27F6
:047FF000FF270994CA
:027FFE00040479
:00000001FF
